S02700004F6E2D64656D616E642054726166666963206C6967687420636F6E74726F6C2E7372656372
S11300000C942A000C9447000C9447000C9447006D
S11300100C946F050C9446050C9447000C9447000F
S11300200C9447000C9447000C941D050C94F404A4
S11300300C9447000C9447000C9447000C94470020
S11300400C9447000C9447000C9447000C94470010
S11300500C94470011241FBECFE5D8E0DEBFCDBF0E
S113006010E0A0E6B0E0E4E3FBE002C005900D92EE
S1130070A239B107D9F720E0A2E9B0E001C01D928E
S1130080A33BB207E1F70E945E030C9498050C941D
S1130090000083E690E00E94250380E690E00E9441
S11300A0250386E690E00E9441020E94F30208952F
S11300B0CF93DF9300D000D0CDB7DEB70E94040306
S11300C069837A838B839C8389819A81AB81BC8188
S11300D04091A1005091A2006091A3007091A400EE
S11300E0841B950BA60BB70B88389341A105B1056A
S11300F0B0F08091A0008F5F8093A00063E083E65E
S113010090E00E94370389819A81AB81BC818093FE
S1130110A1009093A200A093A300B093A400E09147
S1130120A000E43008F0E0E0E093A000F0E0EA583A
S1130130FF4F80818093B200813051F018F08230FB
S113014071F133C060E083E690E00E94370332C06F
S113015089819A81AB81BC8140919C0050919D0022
S113016060919E0070919F00841B950BA60BB70BAA
S11301708A3F9105A105B105E8F061E083E690E0CE
S11301800E94370389819A81AB81BC8180939C0052
S113019090939D00A0939E00B0939F000BC062E0DB
S11301A083E690E00E94370305C062E083E690E0B6
S11301B00E9437030F900F900F900F90DF91CF9113
S11301C008951F93CF93DF9300D000D0CDB7DEB74F
S11301D00E94040369837A838B839C8389819A8137
S11301E0AB81BC81409198005091990060919A0034
S11301F070919B00841B950BA60BB70B8838934119
S1130200A105B105C8F1809197008F5F8093970095
S1130210809196008823C1F01092A5001092960058
S1130220109298001092990010929A0010929B00DC
S113023010929200109293001092940010929500E4
S11302401092970011E001C010E063E080E690E0B6
S11302500E94370363E083E690E00E9437038981BC
S11302609A81AB81BC818093980090939900A0936C
S11302709A00B0939B0001C010E01111D9C0809185
S1130280B200823069F460E080E690E00E943703B7
S113029062E083E690E00E94370381E08093960059
S11302A09091B200923008F0C3C0809197008630DC
S11302B008F080E080939700823009F470C028F43D
S11302C0882361F08130F1F1B3C0843009F4A3C014
S11302D008F470C0853009F4A8C0AAC0913039F57B
S11302E089819A81AB81BC814091920050919300A5
S11302F06091940070919500841B950BA60BB70B2D
S11303008A3F9105A105B105B8F061E083E690E06C
S11303100E94370389819A81AB81BC8180939200CA
S113032090939300A0939400B093950005C060E06F
S113033083E690E00E94370362E080E690E00E944A
S1130340370376C089819A81AB81BC814091920048
S1130350509193006091940070919500841B950BCB
S1130360A60BB70B8A3F9105A105B10508F460C03F
S113037061E083E690E00E94370361E080E690E06C
S11303800E94370389819A81AB81BC81809392005A
S113039090939300A0939400B093950049C062E0B9
S11303A083E690E00E94370360E080E690E00E94DC
S11303B037033EC089819A81AB81BC814091920010
S11303C0509193006091940070919500841B950B5B
S11303D0A60BB70B8A3F9105A105B105B0F061E00A
S11303E083E690E00E94370361E080E690E00E949B
S11303F0370389819A81AB81BC8180939200909369
S11304009300A0939400B093950060E080E690E0A0
S11304100E9437030DC062E080E690E00E9437033B
S113042060E083E690E00E94370381E080939600C9
S11304300F900F900F900F90DF91CF911F9108951F
S113044086E690E00E944E0280916700833061F45A
S11304508091A500811108C081E08093A50063E02C
S113046083E690E00E9437038091A500882319F069
S1130470813021F008950E94580008950E94E100FF
S11304800895CF93DF93EC0160E088810E946303B9
S113049019821A821B82DF91CF910895CF92DF9245
S11304A0EF92FF920F931F93CF93DF9300D000D06E
S11304B0CDB7DEB78C010E94040369837A838B83F2
S11304C09C83F801118289819A81AB81BC8140852A
S11304D0518562857385841B950BA60BB70BC39757
S11304E0A105B10508F45AC080810E942B04813013
S11304F091F4F801928191110EC0938191110BC076
S113050049815A816B817C814483558366837783D7
S113051091E09283918349815A816B817C81F801B6
S1130520C480D580E680F7804C195D096E097F0987
S11305304487558766877787813089F49381911141
S11305400EC04485558566857785483E53406105D0
S1130550710528F091E0F801938394E0918381116F
S113056014C0F8018281813081F41282138282E006
S1130570818384859585A685B785883E9340A105AA
S1130580B10518F483E0F801818389819A81AB81F4
S1130590BC81F80180879187A287B3870F900F9061
S11305A00F900F90DF91CF911F910F91FF90EF90DB
S11305B0DF90CF90089563E881E00E94EB0480917E
S11305C0A6009091A700A091A800B091A90001965F
S11305D0A11DB11D8093A6009093A700A093A8002D
S11305E0B093A90008950E9468046BED72E081E065
S11305F00E94CD0463E881E00E94EB0440E062E0E5
S113060081E00E94C0040895CF93DF9300D000D00E
S1130610CDB7DEB70E946C048091A6009091A7002C
S1130620A091A800B091A90089839A83AB83BC836D
S11306300E94680469817A818B819C810F900F905C
S11306400F900F90DF91CF910895CF93DF93EC013A
S113065061E088810E94630361E089810E946303F1
S113066061E08A810E946303DF91CF910895CF9363
S1130670DF93EC01613049F018F0623059F00FC09B
S113068061E088810E94CF0316C062E089810E94E4
S1130690CF0311C061E08A810E94CF030CC060E0E7
S11306A088810E94CF0360E089810E94CF0360E0CB
S11306B08A810E94CF03DF91CF9108950E9449005F
S11306C00E942002FDCF883070F028EF280F2830D8
S11306D058F020EF280F283038F028EE280F283063
S11306E018F02FEF01C0282F883068F098EF980F8A
S11306F0983058F090EF980F983048F0885188302F
S113070040F483E007C080E005C081E003C082E0DC
S113071001C08FEF90E0FC01EE0FFF1FDF01A80F77
S1130720B91FAA0FBB1FA658BF4F12960D90BC91BC
S1130730A02DE80FF91FEE0FFF1FE658FF4F0190A1
S1130740F081E02D613081F018F06230C1F008953D
S11307503C9181E090E002C0880F991F2A95E2F74E
S1130760809583238C9308953C9181E090E002C0AE
S1130770880F991F2A95E2F7832B8C930895308173
S113078081E090E002C0880F991F2A95E2F7932F29
S1130790982B90839C91809589238C93089588301D
S11307A070F028EF280F283058F020EF280F283059
S11307B038F028EE280F283018F02FEF01C0282F2A
S11307C0883068F098EF980F983058F090EF980FB1
S11307D0983048F08851883040F483E007C080E0C6
S11307E005C081E003C082E001C08FEF90E0FC010E
S11307F0EE0FFF1FE80FF91FEE0FFF1FE658FF4F24
S11308000190F081E02D613081F018F06230C1F088
S11308100895308181E090E002C0880F991F2A95E5
S1130820E2F78095832380830895308181E090E00E
S113083002C0880F991F2A95E2F7832B80830895BD
S1130840308181E090E002C0880F991F2A95E2F779
S1130850832780830895883070F028EF280F28308C
S113086058F020EF280F283038F028EE280F2830D1
S113087018F02FEF01C0282F883068F098EF980FF8
S1130880983058F090EF980F983048F0885188309D
S113089040F483E007C080E005C081E003C082E04B
S11308A001C08FEF90E0FC01EE0FFF1FE80FF91F6E
S11308B0EE0FFF1FE658FF4F0480F581E02D808185
S11308C090E002C0959587952A95E2F78170089586
S11308D08FB780688FBF08958FB78F778FBF0895C4
S11308E0882319F0813041F0089583B7887F83BF4E
S11308F083B7682B63BF089585B5887F682B65BD72
S11309000895882319F08130F9F0089583B7877B1F
S113091083BF83B7A62FA170B0E00024B695A79536
S11309200794B695A7950794BA2FA02D61FB442789
S113093040F950E0440F551F440F551F440F551FF5
S11309404A2B482B43BF089585B5877BE62FE1707A
S1130950F0E00024F695E7950794F695E79507945B
S1130960FE2FE02D61FB222720F930E0220F331FF8
S1130970220F331F220F331F2E2B282B25BD089542
S1130980CF93DF93C82FD42F0E9470046D2F8C2F28
S11309900E948104DF91CF91089561157105D1F012
S11309A0882319F0813061F0089589B7816089BF87
S11309B089B78D7F89BF7093AF006093AE000895AF
S11309C089B7806489BF89B78F7789BF7093B10075
S11309D06093B0000895882319F0813019F00895C8
S11309E062BF089564BD08951F920F920FB60F92CF
S11309F011242F933F934F935F936F937F938F9320
S1130A009F93AF93BF93EF93FF93E091AE00F09168
S1130A10AF00309709F00995FF91EF91BF91AF9125
S1130A209F918F917F916F915F914F913F912F9102
S1130A300F900FBE0F901F9018951F920F920FB634
S1130A400F9211242F933F934F935F936F937F9350
S1130A508F939F93AF93BF93EF93FF93E091AA007B
S1130A60F091AB00309709F00995FF91EF91BF9198
S1130A70AF919F918F917F916F915F914F913F9132
S1130A802F910F900FBE0F901F9018951F920F92E9
S1130A900FB60F9211242F933F934F935F936F934D
S1130AA07F938F939F93AF93BF93EF93FF93E091C3
S1130AB0B000F091B100309709F00995FF91EF91E2
S1130AC0BF91AF919F918F917F916F915F914F9162
S1130AD03F912F910F900FBE0F901F9018951F926A
S1130AE00F920FB60F9211242F933F934F935F935E
S1130AF06F937F938F939F93AF93BF93EF93FF93E2
S1130B00E091AC00F091AD00309709F00995FF91A8
S1130B10EF91BF91AF919F918F917F916F915F9171
S1130B204F913F912F910F900FBE0F901F901895EA
S1070B30F894FFCF63
S1130B3408090A0001021A00000000000000000075
S1130B44000000000000000102013B003A003900EB
S1130B5438003700360035003400330032003100E9
S1050B6430005B
S9030000FC
