S01E000054494D4552535F414E445F4D494C4C49535F544553542E7372656338
S11300000C942A000C9447000C9447000C9447006D
S11300100C94E3020C94BA020C9447000C9447002D
S11300200C9447000C9447000C9491020C946802C1
S11300300C9447000C9447000C9447000C94470020
S11300400C9447000C9447000C9447000C94470010
S11300500C94470011241FBECFE5D8E0DEBFCDBF0E
S113006010E0A0E6B0E0ECE1F6E002C005900D92ED
S1130070A837B107D9F720E0A8E7B0E001C01D9286
S1130080A438B207E1F70E9440010C940C030C94CD
S11300900000883070F028EF280F283058F020EF47
S11300A0280F283038F028EE280F283018F02FEFCA
S11300B001C0282F883068F098EF980F983058F0D6
S11300C090EF980F983048F08851883040F483E0DE
S11300D007C080E005C081E003C082E001C08FEF6B
S11300E090E0FC01EE0FFF1FDF01A80FB91FAA0F5C
S11300F0BB1FA05ABF4F12960D90BC91A02DE80FC4
S1130100F91FEE0FFF1FE05AFF4F0190F081E02D21
S1130110613081F018F06230C1F008953C9181E0C3
S113012090E002C0880F991F2A95E2F780958323F7
S11301308C9308953C9181E090E002C0880F991F50
S11301402A95E2F7832B8C930895308181E090E027
S113015002C0880F991F2A95E2F7932F982B90835A
S11301609C91809589238C930895883070F028EFB2
S1130170280F283058F020EF280F283038F028EEC8
S1130180280F283018F02FEF01C0282F883068F08E
S113019098EF980F983058F090EF980F983048F0F7
S11301A08851883040F483E007C080E005C081E0D6
S11301B003C082E001C08FEF90E0FC01EE0FFF1F4F
S11301C0E80FF91FEE0FFF1FE05AFF4F0190F08177
S11301D0E02D613081F018F06230C1F00895308173
S11301E081E090E002C0880F991F2A95E2F780957C
S11301F0832380830895308181E090E002C0880FDA
S1130200991F2A95E2F7832B80830895308181E03A
S113021090E002C0880F991F2A95E2F78327808314
S1130220089590E0FC01EE0FFF1FDF01A80FB91F36
S1130230AA0FBB1FA05ABF4F12960D90BC91A02DC0
S1130240E80FF91FEE0FFF1FE05AFF4F0190F081F6
S1130250E02D613031F018F0623031F008951C92D5
S113026008958FEF8C9308958FEF80831C920895E7
S11302708FB780688FBF08958FB78F778FBF08952A
S1130280CF93DF93CDB7DEB72C970FB6F894DEBFCC
S11302900FBECDBF61E080E00E94110161E088E003
S11302A00E9449000E94B20119821A821B821C8298
S11302B00E94C30169877A878B879C8789859A8581
S11302C0AB85BC8549815A816B817C81841B950BEC
S11302D0A60BB70B843F9140A105B10568F062E01D
S11302E080E00E94B50089859A85AB85BC858983A9
S11302F09A83AB83BC83DCCF89859A85AB85BC8527
S11303004D815E816F817885841B950BA60BB70B9D
S1130310883E9340A105B10558F262E088E00E944E
S1130320B50089859A85AB85BC858D839E83AF8313
S1130330B887BECF63E881E00E945F0280917800B5
S113034090917900A0917A00B0917B000196A11D53
S1130350B11D8093780090937900A0937A00B093B4
S11303607B0008950E9438016AE971E081E00E94EF
S1130370410263E881E00E945F0240E062E081E0C4
S11303800E9434020895CF93DF9300D000D0CDB7FC
S1130390DEB70E943C018091780090917900A09191
S11303A07A00B0917B0089839A83AB83BC830E94DB
S11303B0380169817A818B819C810F900F900F9015
S11303C00F90DF91CF910895882319F0813041F087
S11303D0089583B7887F83BF83B7682B63BF08956D
S11303E085B5887F682B65BD0895882319F0813011
S11303F0F9F0089583B7877B83BF83B7A62FA170D5
S1130400B0E00024B695A7950794B695A7950794F0
S1130410BA2FA02D61FB442740F950E0440F551F2B
S1130420440F551F440F551F4A2B482B43BF0895B3
S113043085B5877BE62FE170F0E00024F695E7951B
S11304400794F695E7950794FE2FE02D61FB22278C
S113045020F930E0220F331F220F331F220F331FE6
S11304602E2B282B25BD0895CF93DF93C82FD42F8F
S11304700E94E4016D2F8C2F0E94F501DF91CF9132
S1130480089561157105D1F0882319F0813061F068
S1130490089589B7816089BF89B78D7F89BF7093BB
S11304A0810060938000089589B7806489BF89B70B
S11304B08F7789BF709383006093820008958823A7
S11304C019F0813019F0089562BF089564BD08954C
S11304D01F920F920FB60F9211242F933F934F93B5
S11304E05F936F937F938F939F93AF93BF93EF9398
S11304F0FF93E0918000F0918100309709F0099515
S1130500FF91EF91BF91AF919F918F917F916F91E7
S11305105F914F913F912F910F900FBE0F901F90BD
S113052018951F920F920FB60F9211242F933F9399
S11305304F935F936F937F938F939F93AF93BF93E7
S1130540EF93FF93E0917C00F0917D00309709F0E8
S11305500995FF91EF91BF91AF919F918F917F91F9
S11305606F915F914F913F912F910F900FBE0F901C
S11305701F9018951F920F920FB60F9211242F936C
S11305803F934F935F936F937F938F939F93AF9317
S1130590BF93EF93FF93E0918200F0918300309733
S11305A009F00995FF91EF91BF91AF919F918F91C0
S11305B07F916F915F914F913F912F910F900FBE5B
S11305C00F901F9018951F920F920FB60F9211243F
S11305D02F933F934F935F936F937F938F939F9347
S11305E0AF93BF93EF93FF93E0917E00F0917F0070
S11305F0309709F00995FF91EF91BF91AF919F91C9
S11306008F917F916F915F914F913F912F910F90B7
S10F06100FBE0F901F901895F894FFCFB8
S113061C3B003A003900380037003600350034000E
S10B062C3300320031003000FC
S9030000FC
