S0130000627574746F6E5F544553542E73726563D6
S11300000C942A000C9447000C9447000C9447006D
S11300100C9467030C943E030C9447000C94470023
S11300200C9447000C9447000C9415030C94EC02B8
S11300300C9447000C9447000C9447000C94470020
S11300400C9447000C9447000C9447000C94470010
S11300500C94470011241FBECFE5D8E0DEBFCDBF0E
S113006010E0A0E6B0E0E4E2F7E002C005900D92F3
S1130070A837B107D9F720E0A8E7B0E001C01D9286
S1130080A438B207E1F70E94F0010C9490030C9499
S11300900000CF93DF93EC0160E088810E94E300CD
S11300A019821A821B82DF91CF910895CF92DF9239
S11300B0EF92FF920F931F93CF93DF9300D000D062
S11300C0CDB7DEB78C010E94470269837A838B83A4
S11300D09C83F801118289819A81AB81BC8140851E
S11300E0518562857385841B950BA60BB70BC3974B
S11300F0A105B10508F45AC080810E94AB0181308A
S113010091F4F801928191110EC0938191110BC069
S113011049815A816B817C814483558366837783CB
S113012091E09283918349815A816B817C81F801AA
S1130130C480D580E680F7804C195D096E097F097B
S11301404487558766877787813089F49381911135
S11301500EC04485558566857785483E53406105C4
S1130160710528F091E0F801938394E09183811163
S113017014C0F8018281813081F41282138282E0FA
S1130180818384859585A685B785883E9340A1059E
S1130190B10518F483E0F801818389819A81AB81E8
S11301A0BC81F80180879187A287B3870F900F9055
S11301B00F900F90DF91CF911F910F91FF90EF90CF
S11301C0DF90CF900895883070F028EF280F283002
S11301D058F020EF280F283038F028EE280F283068
S11301E018F02FEF01C0282F883068F098EF980F8F
S11301F0983058F090EF980F983048F08851883034
S113020040F483E007C080E005C081E003C082E0E1
S113021001C08FEF90E0FC01EE0FFF1FDF01A80F7C
S1130220B91FAA0FBB1FA05ABF4F12960D90BC91C5
S1130230A02DE80FF91FEE0FFF1FE05AFF4F0190AA
S1130240F081E02D613081F018F06230C1F0089542
S11302503C9181E090E002C0880F991F2A95E2F753
S1130260809583238C9308953C9181E090E002C0B3
S1130270880F991F2A95E2F7832B8C930895308178
S113028081E090E002C0880F991F2A95E2F7932F2E
S1130290982B90839C91809589238C930895883022
S11302A070F028EF280F283058F020EF280F28305E
S11302B038F028EE280F283018F02FEF01C0282F2F
S11302C0883068F098EF980F983058F090EF980FB6
S11302D0983048F08851883040F483E007C080E0CB
S11302E005C081E003C082E001C08FEF90E0FC0113
S11302F0EE0FFF1FE80FF91FEE0FFF1FE05AFF4F2D
S11303000190F081E02D613081F018F06230C1F08D
S11303100895308181E090E002C0880F991F2A95EA
S1130320E2F78095832380830895308181E090E013
S113033002C0880F991F2A95E2F7832B80830895C2
S1130340308181E090E002C0880F991F2A95E2F77E
S1130350832780830895883070F028EF280F283091
S113036058F020EF280F283038F028EE280F2830D6
S113037018F02FEF01C0282F883068F098EF980FFD
S1130380983058F090EF980F983048F088518830A2
S113039040F483E007C080E005C081E003C082E050
S11303A001C08FEF90E0FC01EE0FFF1FE80FF91F73
S11303B0EE0FFF1FE05AFF4F0480F581E02D80818E
S11303C090E002C0959587952A95E2F7817008958B
S11303D08FB780688FBF08958FB78F778FBF0895C9
S11303E0CF93DF93CDB7DEB760970FB6F894DEBF37
S11303F00FBECDBFCE01019620E1FC0111922A95DA
S1130400E9F728E029830E94490061E080E00E9426
S1130410E3000E943602CE0101960E9456008A81B2
S1130420833029F461E080E00E944F01F4CF8430EE
S113043091F760E080E00E944F01EDCF63E881E036
S11304400E94E3028091780090917900A0917A0053
S1130450B0917B000196A11DB11D8093780090930B
S11304607900A0937A00B0937B0008950E94E8017C
S11304706EE172E081E00E94C50263E881E00E94BF
S1130480E30240E062E081E00E94B8020895CF9365
S1130490DF9300D000D0CDB7DEB70E94EC0180918D
S11304A0780090917900A0917A00B0917B008983C3
S11304B09A83AB83BC830E94E80169817A818B8132
S11304C09C810F900F900F900F90DF91CF91089522
S11304D0882319F0813041F0089583B7887F83BF62
S11304E083B7682B63BF089585B5887F682B65BD86
S11304F00895882319F08130F9F0089583B7877B34
S113050083BF83B7A62FA170B0E00024B695A7954A
S11305100794B695A7950794BA2FA02D61FB44279D
S113052040F950E0440F551F440F551F440F551F09
S11305304A2B482B43BF089585B5877BE62FE1708E
S1130540F0E00024F695E7950794F695E79507946F
S1130550FE2FE02D61FB222720F930E0220F331F0C
S1130560220F331F220F331F2E2B282B25BD089556
S1130570CF93DF93C82FD42F0E9468026D2F8C2F46
S11305800E947902DF91CF91089561157105D1F030
S1130590882319F0813061F0089589B7816089BF9B
S11305A089B78D7F89BF709381006093800008951F
S11305B089B7806489BF89B78F7789BF70938300B7
S11305C0609382000895882319F0813019F008950A
S11305D062BF089564BD08951F920F920FB60F92E3
S11305E011242F933F934F935F936F937F938F9334
S11305F09F93AF93BF93EF93FF93E0918000F091AB
S11306008100309709F00995FF91EF91BF91AF9167
S11306109F918F917F916F915F914F913F912F9116
S11306200F900FBE0F901F9018951F920F920FB648
S11306300F9211242F933F934F935F936F937F9364
S11306408F939F93AF93BF93EF93FF93E0917C00BD
S1130650F0917D00309709F00995FF91EF91BF91DA
S1130660AF919F918F917F916F915F914F913F9146
S11306702F910F900FBE0F901F9018951F920F92FD
S11306800FB60F9211242F933F934F935F936F9361
S11306907F938F939F93AF93BF93EF93FF93E091D7
S11306A08200F0918300309709F00995FF91EF9152
S11306B0BF91AF919F918F917F916F915F914F9176
S11306C03F912F910F900FBE0F901F9018951F927E
S11306D00F920FB60F9211242F933F934F935F9372
S11306E06F937F938F939F93AF93BF93EF93FF93F6
S11306F0E0917E00F0917F00309709F00995FF9119
S1130700EF91BF91AF919F918F917F916F915F9185
S11307104F913F912F910F900FBE0F901F901895FE
S1070720F894FFCF77
S11307243B003A0039003800370036003500340005
S10B07343300320031003000F3
S9030000FC
