:100000000C942A000C943F000C943F000C943F0089
:100010000C943F000C943F000C943F000C943F0064
:100020000C943F000C943F000C943F000C943F0054
:100030000C943F000C943F000C943F000C943F0044
:100040000C943F000C943F000C943F000C943F0034
:100050000C943F0011241FBECFE5D8E0DEBFCDBF1A
:1000600010E0A0E6B0E0ECE6F2E002C005900D92F0
:10007000A837B107D9F70E942D010C9434010C94D4
:100080000000883070F028EF280F283058F020EF5B
:10009000280F283038F028EE280F283018F02FEFDE
:1000A00001C0282F883068F098EF980F983058F0EA
:1000B00090EF980F983048F08851883040F483E0F2
:1000C00007C080E005C081E003C082E001C08FEF7F
:1000D00090E0FC01EE0FFF1FDF01A80FB91FAA0F70
:1000E000BB1FA05ABF4F12960D90BC91A02DE80FD8
:1000F000F91FEE0FFF1FE05AFF4F0190F081E02D36
:10010000613081F018F06230C1F008953C9181E0D7
:1001100090E002C0880F991F2A95E2F7809583230B
:100120008C9308953C9181E090E002C0880F991F64
:100130002A95E2F7832B8C930895308181E090E03B
:1001400002C0880F991F2A95E2F7932F982B90836E
:100150009C91809589238C930895883070F028EFC6
:10016000280F283058F020EF280F283038F028EEDC
:10017000280F283018F02FEF01C0282F883068F0A2
:1001800098EF980F983058F090EF980F983048F00B
:100190008851883040F483E007C080E005C081E0EA
:1001A00003C082E001C08FEF90E0FC01EE0FFF1F63
:1001B000E80FF91FEE0FFF1FE05AFF4F0190F0818B
:1001C000E02D613081F018F06230C1F00895308187
:1001D00081E090E002C0880F991F2A95E2F7809590
:1001E000832380830895308181E090E002C0880FEE
:1001F000991F2A95E2F7832B80830895308181E04F
:1002000090E002C0880F991F2A95E2F78327808328
:100210000895CF93DF93D82FC0E005C06D2F8C2FAA
:100220000E944100CF5FC032C8F3DF91CF910895A3
:10023000CF93DF93D82FC0E00BC06D2F8C2F0E947F
:10024000AD0087EA91E60197F1F700C00000CF5FAB
:10025000C03298F3DF91CF91089581E00E940901A7
:0C02600082E00E941801FCCFF894FFCF50
:10026C003B003A00390038003700360035003400C6
:08027C003300320031003000B4
:00000001FF
